S01100004C454420426C696E6B2E737265632E
S11300000C942A000C9434000C9434000C943400A6
S11300100C9434000C9434000C9434000C9434008C
S11300200C9434000C9434000C9434000C9434007C
S11300300C9434000C9434000C9434000C9434006C
S11300400C9434000C9434000C9434000C9434005C
S11300500C94340011241FBECFE5D4E0DEBFCDBF25
S11300600E9436000C944D000C940000A09AA89AAB
S1130070A8982FEF8EE994E2215080409040E1F758
S113008000C00000A89A2FEF8EE994E2215080402E
S11100909040E1F700C00000EBCFF894FFCFE2
S9030000FC
