:100000000C942A000C9434000C9434000C943400AA
:100010000C9434000C9434000C9434000C94340090
:100020000C9434000C9434000C9434000C94340080
:100030000C9434000C9434000C9434000C94340070
:100040000C9434000C9434000C9434000C94340060
:100050000C94340011241FBECFE5D4E0DEBFCDBF29
:100060000E9436000C944F000C940000BB9A1ABA00
:1000700087B1806687B986B1876886B9369A2FE7D7
:1000800089EA93E0215080409040E1F700C00000F1
:1000900085B1813810F0C39AF1CF18BAEFCFF89438
:0200A000FFCF90
:00000001FF
