S01300004C4544205061747465726E2E737265633E
S11300000C942A000C9434000C9434000C943400A6
S11300100C9434000C9434000C9434000C9434008C
S11300200C9434000C9434000C9434000C9434007C
S11300300C9434000C9434000C9434000C9434006C
S11300400C9434000C9434000C9434000C9434005C
S11300500C94340011241FBECFE5D4E0DEBFCDBF25
S11300600E9436000C9465000C9400008FEF87BB4F
S113007018BAA0E050E061E070E0E7E0F0E08A2F19
S1130080952F48B39B01082E02C0220F331F0A94F8
S1130090E2F7422B9F01281B390BEB0102C0CC0F66
S11300A0DD1F2A95E2F79E01242B28BBDFEF2EE902
S11300B034E2D15020403040E1F700C0000018BACB
S11100C0019687309105E9F6DACFF894FFCF68
S9030000FC
