S010000046616465204C45442E73726563AF
S11300000C942A000C9434000C9434000C943400A6
S11300100C9434000C9434000C9434000C9434008C
S11300200C9434000C9434000C9434000C9434007C
S11300300C9434000C9434000C9434000C9434006C
S11300400C9434000C9434000C9434000C9434005C
S11300500C94340011241FBECFE5D4E0DEBFCDBF25
S11300600E9436000C9449000C940000BB9A83B79C
S11300708D6683BF1CBE8CB72FE78FE492E12150BD
S113008080409040E1F700C000008CB78C5E8CBFCC
S1090090F2CFF894FFCF4B
S9030000FC
