:100000000C942A000C9442000C9434000C9434009C
:100010000C9434000C9434000C9434000C94340090
:100020000C9434000C9434000C9434000C94340080
:100030000C9434000C9434000C9434000C94340070
:100040000C9434000C9434000C9434000C94340060
:100050000C94340011241FBECFE5D4E0DEBFCDBF29
:100060000E9436000C9466000C94000011BA929A1B
:10007000A09AA89A85B7816085BF8BB7806E8BBF29
:100080007894FFCF1F920F920FB60F9211242F93E7
:100090008F939F93A8982FEF8EE994E22150804090
:1000A0009040E1F700C00000A89A2FEF8EE994E29B
:1000B000215080409040E1F700C000009F918F9157
:1000C0002F910F900FBE0F901F901895F894FFCFAF
:00000001FF
